{
  "contractName": "Todolist",
  "abi": [
    {
      "anonymous": false,
      "inputs": [
        {
          "indexed": false,
          "internalType": "uint256",
          "name": "id",
          "type": "uint256"
        },
        {
          "indexed": false,
          "internalType": "bool",
          "name": "completed",
          "type": "bool"
        }
      ],
      "name": "TaskCompleted",
      "type": "event"
    },
    {
      "anonymous": false,
      "inputs": [
        {
          "indexed": false,
          "internalType": "uint256",
          "name": "id",
          "type": "uint256"
        },
        {
          "indexed": false,
          "internalType": "string",
          "name": "content",
          "type": "string"
        },
        {
          "indexed": false,
          "internalType": "bool",
          "name": "completed",
          "type": "bool"
        }
      ],
      "name": "TaskCreated",
      "type": "event"
    },
    {
      "inputs": [
        {
          "internalType": "address",
          "name": "",
          "type": "address"
        },
        {
          "internalType": "uint256",
          "name": "",
          "type": "uint256"
        }
      ],
      "name": "tasks",
      "outputs": [
        {
          "internalType": "uint256",
          "name": "id",
          "type": "uint256"
        },
        {
          "internalType": "string",
          "name": "content",
          "type": "string"
        },
        {
          "internalType": "bool",
          "name": "completed",
          "type": "bool"
        }
      ],
      "stateMutability": "view",
      "type": "function",
      "constant": true
    },
    {
      "inputs": [
        {
          "internalType": "address",
          "name": "",
          "type": "address"
        }
      ],
      "name": "tasksCount",
      "outputs": [
        {
          "internalType": "uint256",
          "name": "",
          "type": "uint256"
        }
      ],
      "stateMutability": "view",
      "type": "function",
      "constant": true
    },
    {
      "inputs": [
        {
          "internalType": "string",
          "name": "_content",
          "type": "string"
        }
      ],
      "name": "createTask",
      "outputs": [],
      "stateMutability": "nonpayable",
      "type": "function"
    },
    {
      "inputs": [
        {
          "internalType": "uint256",
          "name": "_id",
          "type": "uint256"
        }
      ],
      "name": "toggleCompletion",
      "outputs": [],
      "stateMutability": "nonpayable",
      "type": "function"
    }
  ],
  "bytecode": "0x608060405234801561001057600080fd5b506106a7806100206000396000f3fe608060405234801561001057600080fd5b506004361061004c5760003560e01c8063111002aa146100515780637149d2e4146100665780637b219c3914610091578063ebc218a7146100bf575b600080fd5b61006461005f3660046104c8565b6100d2565b005b61007961007436600461049e565b6101a7565b60405161008893929190610592565b60405180910390f35b6100b161009f36600461047c565b60016020526000908152604090205481565b604051908152602001610088565b6100646100cd366004610579565b61025d565b336000818152600160208181526040808420548151606081018352818152808401888152818401879052968652858452828620828752845291909420815181559451805194959194919361012c93908501929101906103c7565b50604091820151600291909101805460ff1916911515919091179055517f05d0fb833127fc08168556d0e7ca9554fc3f6bc843b3b7d2bf1c35aea6bab6609061017b9083908590600090610592565b60405180910390a133600090815260016020526040812080549161019e83610632565b91905055505050565b6000602081815292815260408082209093529081522080546001820180549192916101d1906105f7565b80601f01602080910402602001604051908101604052809291908181526020018280546101fd906105f7565b801561024a5780601f1061021f5761010080835404028352916020019161024a565b820191906000526020600020905b81548152906001019060200180831161022d57829003601f168201915b5050506002909301549192505060ff1683565b336000908152602081815260408083208484528252808320815160608101909252805482526001810180549293919291840191610299906105f7565b80601f01602080910402602001604051908101604052809291908181526020018280546102c5906105f7565b80156103125780601f106102e757610100808354040283529160200191610312565b820191906000526020600020905b8154815290600101906020018083116102f557829003601f168201915b50505091835250506002919091015460ff16151560209182015260408083018051159052336000908152808352818120868252835220825181558282015180519394508493919261036b926001850192909101906103c7565b50604091820151600291909101805460ff191691151591909117905581810151815184815290151560208201527fe21fa966ca5cd02748c0752352d18c48165e61cb55b4c29cccf924b5a95fcff1910160405180910390a15050565b8280546103d3906105f7565b90600052602060002090601f0160209004810192826103f5576000855561043b565b82601f1061040e57805160ff191683800117855561043b565b8280016001018555821561043b579182015b8281111561043b578251825591602001919060010190610420565b5061044792915061044b565b5090565b5b80821115610447576000815560010161044c565b80356001600160a01b038116811461047757600080fd5b919050565b60006020828403121561048e57600080fd5b61049782610460565b9392505050565b600080604083850312156104b157600080fd5b6104ba83610460565b946020939093013593505050565b6000602082840312156104da57600080fd5b813567ffffffffffffffff808211156104f257600080fd5b818401915084601f83011261050657600080fd5b8135818111156105185761051861065b565b604051601f8201601f19908116603f011681019083821181831017156105405761054061065b565b8160405282815287602084870101111561055957600080fd5b826020860160208301376000928101602001929092525095945050505050565b60006020828403121561058b57600080fd5b5035919050565b83815260006020606081840152845180606085015260005b818110156105c6578681018301518582016080015282016105aa565b818111156105d8576000608083870101525b5093151560408401525050601f91909101601f19160160800192915050565b600181811c9082168061060b57607f821691505b6020821081141561062c57634e487b7160e01b600052602260045260246000fd5b50919050565b600060001982141561065457634e487b7160e01b600052601160045260246000fd5b5060010190565b634e487b7160e01b600052604160045260246000fdfea2646970667358221220835e4a598a91dd240d774e374e14258d20874957f4ca306f8bcd67908f5acfd964736f6c63430008050033",
  "immutableReferences": {},
  "source": "// SPDX-License-Identifier: MIT\npragma solidity 0.8.5;\n\ncontract Todolist {\n    // task structure\n    struct Task {\n        uint256 id;\n        string content;\n        bool completed;\n    }\n\n    // Events\n    // ------\n    event TaskCreated(uint256 id, string content, bool completed);\n    event TaskCompleted(uint256 id, bool completed);\n\n    // Mapping of tasks (according to the address)\n    /*\n    tasks : {\n        address1 : {\n            1 : {\n                id : \"\",\n                content : \"\",\n                completed : \"\",\n            }\n            .....\n        },\n        address2 : {\n            1 : {\n                id : \"\",\n                content : \"\",\n                completed : \"\",\n            }\n            .....\n        }\n        .....\n    } \n    */\n    mapping(address => mapping(uint256 => Task)) public tasks;\n    // Mapping of the count of tasks created by a particular address\n    /*\n    address => number of tasks \n    */\n    mapping(address => uint256) public tasksCount;\n\n    function createTask(string memory _content) public {\n        uint256 taskCount = tasksCount[msg.sender];\n        tasks[msg.sender][taskCount] = Task(taskCount, _content, false);\n        emit TaskCreated(taskCount, _content, false);\n        tasksCount[msg.sender]++;\n    }\n\n    function toggleCompletion(uint256 _id) public {\n        Task memory task = tasks[msg.sender][_id];\n        task.completed = !task.completed;\n        tasks[msg.sender][_id] = task;\n        emit TaskCompleted(_id, task.completed);\n    }\n}\n",
  "sourcePath": "/Users/family/Desktop/BlockChain/BlockchainTodolist/contracts/Todolist.sol",
  "compiler": {
    "name": "solc",
    "version": "0.8.5+commit.a4f2e591.Emscripten.clang"
  },
  "schemaVersion": "3.4.7",
  "updatedAt": "2022-04-13T09:59:54.289Z",
  "networkType": "ethereum",
  "devdoc": {
    "kind": "dev",
    "methods": {},
    "version": 1
  },
  "userdoc": {
    "kind": "user",
    "methods": {},
    "version": 1
  }
}